:100000000C9402010C9424010C9424010C942401FE
:100010000C9424010C9424010C9424010C942401CC
:100020000C9424010C9424010C9424010C942401BC
:100030000C9424010C9424010C9424010C942401AC
:100040000C9424010C9424010C9424010C9424019C
:100050000C9424010C9424010C9424010C94780237
:100060000C9424010C9424010C9424010C9424017C
:100070000C9424010C9424010C9424010C9424016C
:100080000C9424010C9424010C9424010C9424015C
:100090000C9424010C9424010C9424010C9424014C
:1000A0000C9424010C9424010C9424010C9424013C
:1000B0000C9424010C9424010C9424010C9424012C
:1000C0000C9424010C9424010C9424010C9424011C
:1000D0000C9424010C9424010C9424010C9424010C
:1000E0000C94240100002100240027002A002D0088
:1000F0003000330001010000040107010A01000083
:100100002200250028002B002E00310034000201BF
:100110000000050108010B0100002000230026005B
:1001200029002C002F00320000010000030106010D
:10013000090105050505070508080808020202026D
:100140000A0A080804040404010101010101010173
:100150000303030303030303040707070C0C0C0C3E
:100160000C0C0C0C02020202060606060606060627
:100170000B0B0B0B0B0B0B0B0102102020080810B4
:100180002040102040800201020108040201010207
:1001900004081020408080402010080402018004E0
:1001A000020180402010080402010804020101023B
:1001B0000408102040800102040810204080000044
:1001C000090A02080B0C0D070603040100000000D9
:1001D000000000000000000000000000000000001F
:1001E00000000000000000000000100F0E000000E2
:1001F00000000000000000000000000000000000FF
:100200000000000011241FBECFEFD1E2DEBFCDBF42
:1002100000E00CBF12E0A0E0B2E0E0E6F6E000E0B3
:100220000BBF02C007900D92A230B107D9F71BBED9
:1002300012E0A2E0B2E001C01D92AB30B107E1F7DD
:100240000E9471020C942E030C9400001F93CF9314
:10025000DF9380E00E944102892B19F4C1E0D0E0D5
:100260001FC0C1E0D0E00AC08C2F61E00E940C02E8
:100270008C2F815060E00E940C0222968091000237
:1002800090910102C817D9077CF311C08C2F60E050
:100290000E940C028C2F815061E00E940C02229679
:1002A0008091000290910102C817D9077CF3DF9179
:1002B000CF911F910895CF93DF93C1E0D0E005C0A7
:1002C0008C2F61E00E947301219680910002909131
:1002D0000102C817D907A4F380E060E00E9473010F
:1002E000DF91CF910895482F50E0CA0188589E4F62
:1002F000FC0124914E5C5E4FFA0184918823C1F089
:10030000E82FF0E0EE0FFF1FEC51FF4FA591B491E5
:10031000662341F49FB7F8948C91209582238C93A7
:100320009FBF08959FB7F8948C91822B8C939FBFA9
:100330000895893009F448C08A30A0F4843049F126
:10034000853040F4823071F18330F8F4813009F067
:1003500062C025C0873071F1883090F5863009F091
:100360005AC024C08D3009F441C08E3028F48B303F
:10037000A9F18C30B8F52CC08F3009F441C08F3012
:10038000D8F1803109F047C041C0809180008F775B
:1003900003C0809180008F7D80938000089584B594
:1003A0008F7702C084B58F7D84BD08958091B000A1
:1003B0008F7703C08091B0008F7D8093B000089547
:1003C000809190008F7707C0809190008F7D03C04F
:1003D00080919000877F8093900008958091A00085
:1003E0008F7707C08091A0008F7D03C08091A0000F
:1003F000877F8093A0000895809120018F7703C0AC
:10040000809120018F7D80932001089580912001AB
:10041000877F809320010895FF920F931F93F62EFC
:10042000482F50E0CA0182549E4FFC012491CA011A
:1004300088589E4FFC0114914E5C5E4FFA01049166
:100440000023D9F0222319F0822F0E949901E02F76
:10045000F0E0EE0FFF1FE250FF4FA591B491FF2097
:1004600031F49FB7F8948C911095812304C09FB705
:10047000F8948C91812B8C939FBF1F910F91FF90CB
:1004800008950F931F93482F50E0CA0182549E4F46
:10049000FC012491CA0188589E4FFC0104914E5CD6
:1004A0005E4FFA011491112319F420E030E015C0D9
:1004B000222319F0822F0E949901812F90E0880F4A
:1004C000991F885E9E4FFC01A591B4918C9120E00C
:1004D00030E0802311F021E030E0C9011F910F913D
:1004E00008950E94CC020E945B010E942601FDCF6C
:1004F0001F920F920FB60F9211242F933F934F9399
:100500005F936F937F938F939F93AF93BF9320914C
:100510000602309107024091080250910902709141
:100520000A02DA01C9010296A11DB11D672F6A5F97
:100530006D3730F06D57DA01C9010396A11DB11D69
:1005400060930A028093060290930702A093080228
:10055000B09309028091020290910302A0910402DB
:10056000B09105020196A11DB11D809302029093E6
:100570000302A0930402B0930502BF91AF919F9133
:100580008F917F916F915F914F913F912F910F903C
:100590000FBE0F901F901895789484B5826084BD2B
:1005A00084B5816084BD85B5826085BD85B5816077
:1005B00085BDEEE6F0E0808181608083E1E8F0E0D7
:1005C0001082808182608083808181608083E0E806
:1005D000F0E0808181608083E1EBF0E080818460E5
:1005E0008083E0EBF0E0808181608083E1E9F0E0EE
:1005F000808182608083808181608083E0E9F0E097
:10060000808181608083E1EAF0E080818260808384
:10061000808181608083E0EAF0E080818160808376
:10062000E1E2F1E08081826080838081816080836B
:10063000E0E2F1E0808181608083EAE7F0E08081A0
:1006400084608083808182608083808181608083F8
:100650008081806880831092C1000895F894FFCF54
:02066000350063
:00000001FF
