:100000000C9475010C949D010C949D010C949D0120
:100010000C949D010C949D010C949D010C949D01E8
:100020000C949D010C949D010C94B5060C9436071C
:100030000C949D010C949D010C949D010C949D01C8
:100040000C949D010C949D010C949D010C949D01B8
:100050000C949D010C949D010C949D010C94D8016D
:100060000C949D010C949D010C949D010C949D0198
:100070000C949D010C949D010C949D010C949D0188
:100080000C949D010C949D010C949D010C949D0178
:100090000C949D010C949D010C949D010C949D0168
:1000A0000C949D010C949D010C949D010000000096
:1000B000240027002A002D00300000000000250049
:1000C00028002B002E003100000000002300260035
:1000D00029002C002F00040402020404040404027A
:1000E00002020202020303020606060606060404D2
:1000F0000202020404082010804010020180010462
:100100000802404080010102102040801080102031
:100110004040000003000E0000000201000000004B
:1001200004080B00000000000000000000000000B8
:10013000000104050607080A0B0C0D09080B000254
:10014000020201000904000001020200000524006F
:100150001001052401010104240206052406000102
:100160000705810310004009040100020A00000095
:100170000705020240000007058302400000040357
:1001800009042203550053004200200049004F009B
:10019000200042006F006100720064002000200017
:1001A00020002000180355006E006B006E006F00E9
:1001B00077006E00200020002000200012010002C5
:1001C00000000040501DA560000101020001120165
:1001D000000202000040501DA56000010102000164
:1001E00000C18081C105010902A1010901A10085A9
:1001F00001050919012903150025019503750181E0
:100200000295017505810305010930093109381589
:1002100081257F750895038106C0C005010906A1E7
:10022000018502050719E029E715002501750195EB
:10023000088102950175088103950675081500254A
:10024000650507190029658100C009040200010342
:100250000000000921010100012265000705840357
:1002600040000100000000000000002A2B280000D0
:10027000000000000000000000000000000000007E
:100280000000002C9EB4A0A1A2A434A6A7A5AE365F
:100290002D3738271E1F20212223242526B333B6CD
:1002A0002EB7B89F8485868788898A8B8C8D8E8FA0
:1002B000909192939495969798999A9B9C9D2F31A3
:1002C00030A3AD350405060708090A0B0C0D0E0F07
:1002D000101112131415161718191A1B1C1DAFB183
:1002E000B0B50000EC03F405B90811241FBECFEF30
:1002F000DAE0DEBFCDBF11E0A0E0B1E0E4E9F3E178
:1003000002C005900D92AE36B107D9F711E0AEE606
:10031000B1E001C01D92AF3DB107E1F712E0CAEEB6
:10032000D2E004C02297FE010E94C409C43ED10756
:10033000C9F70E94B7040C94C8090C9400000F93ED
:100340001F938091410161E00E946E0368EE73E0AB
:1003500080E090E00E9479028091410160E00E947B
:100360006E0368EE73E080E090E00E9479020BEB90
:1003700011E0C80160E071E00E943005C8016CE343
:1003800071E00E9430051F910F91089568EB7BE0AA
:1003900080E090E00E9479028091410161E00E943A
:1003A000E1028BEB91E060E875E20E94A103089501
:1003B0001F920F920FB60F9211242F933F938F939A
:1003C0009F93AF93BF938091720190917301A0911D
:1003D0007401B0917501309176010196A11DB11D96
:1003E000232F2D5F2D3720F02D570196A11DB11D14
:1003F000209376018093720190937301A09374010E
:10040000B093750180916E0190916F01A091700180
:10041000B09171010196A11DB11D80936E01909361
:100420006F01A0937001B0937101BF91AF919F9143
:100430008F913F912F910F900FBE0F901F901895A5
:10044000789484B5826084BD84B5816084BD85B5AF
:10045000826085BD85B5816085BDEEE6F0E0808176
:1004600081608083E1E8F0E0108280818260808397
:10047000808181608083E0E8F0E08081816080831A
:10048000E1E9F0E080818260808380818160808307
:10049000E0E9F0E0808181608083E1ECF0E0808140
:1004A000846080838081826080838081816080839A
:1004B000E3ECF0E0808181608083E0ECF0E080811B
:1004C00082608083E2ECF0E0808181608083EAE7F3
:1004D000F0E080818460808380818260808380817D
:1004E0008160808380818068808380E885BF85BF4C
:1004F0000895EF92FF920F931F93CF93DF937B01A9
:100500008C013FB7F89480916E0190916F01A0919A
:100510007001B091710126B5A89B05C02F3F19F05D
:100520000196A11DB11D3FBFBA2FA92F982F882773
:10053000820F911DA11DB11D52E0880F991FAA1FA6
:10054000BB1F5A95D1F7EC0130C00E947E083FB71F
:10055000F89480916E0190916F01A0917001B0911B
:10056000710126B5A89B05C02F3F19F00196A11D6A
:10057000B11D3FBFBA2FA92F982F8827820F911D39
:10058000A11DB11D32E0880F991FAA1FBB1F3A950C
:10059000D1F78C1B9D0B885E9340B8F20894E1085C
:1005A000F10801091109C851DC4FE114F1040105FA
:1005B000110559F6DF91CF911F910F91FF90EF90A8
:1005C0000895CF93DF93482F50E0CA018C509F4F7E
:1005D000FC0134914A525F4FFA018491882369F1FA
:1005E00090E0880F991FFC01E455FF4FA591B4914D
:1005F000FC01E654FF4FC591D491662351F42FB707
:10060000F8948C91932F909589238C9388818923DA
:100610000BC0623061F42FB7F8948C91932F9095B2
:1006200089238C938881832B88832FBF06C09FB733
:10063000F8948C91832B8C939FBFDF91CF91089579
:10064000883071F1893068F4823031F1833020F4E0
:10065000813009F042C01DC0833089F08430E9F553
:1006600012C08B3059F18C3028F48930E9F08A308F
:10067000A1F51EC08C3031F18E3079F529C0809102
:1006800080008F7703C0809180008F7D80938000F1
:10069000089584B58F7702C084B58F7D84BD089599
:1006A000809190008F7707C0809190008F7D03C06C
:1006B00080919000877F8093900008958091C00082
:1006C0008F7703C08091C0008F7D8093C000089514
:1006D0008091C200877F8093C2000895FF920F939C
:1006E0001F93F62E482F50E0CA018E5E9E4FFC01EC
:1006F0002491CA018C509F4FFC0114914A525F4FC4
:10070000FA0104910023C9F0222319F0822F0E94DC
:100710002003E02FF0E0EE0FFF1FE654FF4FA591FE
:10072000B4919FB7F894FF2021F48C911095812308
:1007300002C08C91812B8C939FBF1F910F91FF90D2
:10074000089508952091B7013091B8018091B901C1
:100750009091BA01281B390B2F733070C90108958D
:100760002091B7013091B8018091B9019091BA01FF
:100770002817390719F42FEF3FEF09C0E091B901AD
:10078000F091BA01E958FE4F8081282F30E0C9016D
:1007900008952091B7013091B8018091B9019091ED
:1007A000BA012817390719F42FEF3FEF13C0E09172
:1007B000B901F091BA01E958FE4F20818091B90149
:1007C0009091BA0101968F7390709093BA018093C3
:1007D000B90130E0C90108951092BE011092BD0127
:1007E00088EE93E0A0E0B0E08093BF019093C00159
:1007F000A093C101B093C20181E591E09093BC0147
:100800008093BB0108950F931F93DF93CF930F92B3
:10081000CDB7DEB78C01698380914A01882369F0E6
:1008200083E0BE016F5F7F4F41E050E00E94110600
:100830001816190614F49C0107C081E090E0F80135
:100840009383828320E030E0C9010F90CF91DF9144
:100850001F910F91089583E00E94EA050895CF93B8
:10086000DF9312C082E00E9476052FEF8F3F920740
:10087000C9F0E091B701F091B801E958FE4F8083CB
:10088000D093B801C093B701C091B701D091B8011E
:100890002196CF73D0708091B9019091BA01C81799
:1008A000D90701F7DF91CF910895FC0180818E5F18
:1008B000808380E86CE371E042E450E00E948F05A1
:1008C0000895FC0181819081913A59F4813209F0B7
:1008D0004CC080E063E471E047E050E00E948F0587
:1008E00042C0913209F041C0803239F483E491E092
:1008F00067E070E00E94D30536C0823209F035C04F
:10090000828180934A018091430190914401A0919A
:100910004501B0914601805B9440A040B04019F57C
:1009200080914A0180FD12C087E797E79093010804
:10093000809300082BE088E190E00FB6F894A8952A
:10094000809360000FBE209360000DC088E10FB659
:10095000F89480936000109260000FBEA8951092EA
:1009600001081092000881E0089580E00895CF9377
:10097000DF930E94200281ED91E00E94F5050E9424
:10098000C601C0E0D0E00E949F012097E1F30E94E1
:100990000000F9CFCF92DF92EF92FF920F931F9357
:1009A000CF93DF937C016B018A01C0E0D0E00FC0E0
:1009B000D6016D916D01D701ED91FC910190F0810F
:1009C000E02DC7010995C80FD91F0150104001152E
:1009D000110571F7CE01DF91CF911F910F91FF901B
:1009E000EF90DF90CF900895EF92FF920F931F93B7
:1009F0008C01DC01ED91FC910190F081E02D6DE026
:100A000009957C01D801ED91FC910190F081E02DD8
:100A1000C8016AE009959C012E0D3F1DC9011F9177
:100A20000F91FF90EF900895CF93DF93EC01611544
:100A3000710519F420E030E00FC0DB010D900020BB
:100A4000E9F71197A61BB70BE881F9810280F381C2
:100A5000E02DAD0109959C01C901DF91CF91089569
:100A6000EF92FF920F931F937C010E9414058C015B
:100A7000C7010E94F404080F191FC8011F910F91AC
:100A8000FF90EF900895282F8091CB018823B9F033
:100A900057FF19C014C09093CA018091F10081934F
:100AA000E217F307C1F74115510539F08091F200C3
:100AB000882319F48BE68093E800AFBF02C04FEFA4
:100AC0005FEFCA010895AFB7F89427702093E9004B
:100AD0008091F200282F30E0241735070CF4A9018B
:100AE000FB019B01240F311D94E6DACFDF93CF93F6
:100AF0000F92CDB7DEB7BE016F5F7F4F41E050E090
:100B00000E944305019719F02FEF3FEF03C0898141
:100B1000282F30E0C9010F90CF91DF910895FF9207
:100B20000F931F93F82E142F052F4091CE01509153
:100B3000CF01212F302FC901DC01FB016EEF29C04D
:100B4000F7FE02C0949101C090812091CC013091B8
:100B5000CD0124173507ACF48091E8008570E1F3EE
:100B60008091E80082FF03C02FEF3FEF17C0909302
:100B7000F100C90101968F739070892B11F4609375
:100B8000E8002F5F3F4F3093CD012093CC011197A8
:100B900031961097A9F6812F902F9C01C9011F91C2
:100BA0000F91FF9008959C018091E80082FFFCCF97
:100BB000F901260F311D03C08091F1008193E217E6
:100BC000F307D1F784E68093CA018BEF8093E800A6
:100BD000CB0108958093E9008091F200882319F0F9
:100BE0008AE38093E800089508951092CB0181E094
:100BF0008093D70080EA8093D80082E189BD09B450
:100C000000FEFDCF61E070E080E090E00E9479029C
:100C100080E98093D8008CE08093E2001092E0009D
:100C200008955F926F927F928F929F92AF92BF9240
:100C3000CF92DF92EF92FF920F931F93CF93DF93A8
:100C4000E82E842E752E8091CB01882371F18B01C3
:100C5000242F352FC901EC017AEFF72E67E0962E8D
:100C60009E2050E4552E8E2D90E040E2A42EB12C13
:100C7000A822B9223AE3632E20E4C22ED12CC82246
:100C8000D92258C09FB7F8949092E9008091E8006B
:100C900085FD02C020E004C08091F200252D281BB4
:100CA0009FBF222361F4FA9419F42FEF3FEF4CC059
:100CB00061E070E080E090E00E9479023BC0822F0A
:100CC00090E0C817D9070CF42C2FC21BD1094FB7DD
:100CD000F8949092E900A114B10421F406C0109296
:100CE000F10021502223D9F719C0E7FC03C0F80115
:100CF000922F10C0C801322F06C0FC010196E4916A
:100D0000E093F10031503323C1F706C08191809305
:100D1000F10091509923D1F7020F111D8091E80045
:100D200085FF05C0209729F4C114D10411F0609209
:100D3000E8004FBF209709F0A5CF84E68093C90152
:100D4000282D372DC9019C01C901DF91CF911F9139
:100D50000F91FF90EF90DF90CF90BF90AF909F905A
:100D60008F907F906F905F9008951F920F920FB6B3
:100D70000F9211242F933F934F935F936F937F9321
:100D80008F939F93AF93BF93EF93FF938091E10075
:100D90001092E100982F83FF0FC01092E90081E0CC
:100DA0008093EB001092EC0082E38093ED001092B0
:100DB000CB0188E08093F00092FF2EC083E0809307
:100DC000E9008091F200882319F08AE38093E8001B
:100DD0008FB7F89492E09093E9009091F2008FBF62
:100DE000992321F08BEB91E00E942F048091C9019F
:100DF000882339F08091C90181508093C901809185
:100E0000C9018091CA01882339F08091CA018150BB
:100E10008093CA018091CA01FF91EF91BF91AF9178
:100E20009F918F917F916F915F914F913F912F9102
:100E30000F900FBE0F901F9018950F931F93DF9385
:100E4000CF930F92CDB7DEB719828E010F5F1F4F80
:100E5000C8010E945504C8010E94B609898190E02A
:100E60000F90CF91DF911F910F9108951F920F92D4
:100E70000FB60F921124EF92FF921F932F933F937F
:100E80004F935F936F937F938F939F93AF93BF9392
:100E9000EF93FF93DF93CF93CDB7DEB76197DEBFBC
:100EA000CDBF1092E9008091E80083FF0EC1FE01E2
:100EB00031969E01275F3F4F03C08091F1008193DF
:100EC000E217F307D1F784E68093CA0182EF80939B
:100ED000E800998197FF05C08091E80080FFFCCF72
:100EE00003C08EEF8093E800292F30E0C90180769F
:100EF0009070892B09F0C2C08A81882329F410924E
:100F0000F1001092F100D6C0813009F4D3C08330D3
:100F100009F4D0C0853049F48091E80080FFFCCF0F
:100F20008B8180688093E300C5C0863009F07CC067
:100F30001C81EF80F8841230C1F51092E900109204
:100F4000CD011092CC011092CF011092CE010E94DF
:100F50001D0799E0FE013996DF01292F1D922A9580
:100F6000E9F799871A8791E09E8790E8988B9AEF26
:100F7000998B2091CC013091CD01275F3F4F3C8769
:100F80002B878D871092E9001092CD011092CC0131
:100F9000F092CF01E092CE0180E0BF0149E050E045
:100FA0000E948F050E941D0785C01092E9001092D3
:100FB000CD011092CC01F092CF01E092CE0112321D
:100FC00041F482E290E00E94AE09892B09F476C0D8
:100FD00071C0113079F488E0E816F10419F481E069
:100FE0008093D0018091D001882309F06BC0ECEB95
:100FF000F1E013C0133009F061C08B81882319F42C
:10100000EEE7F1E00AC0823019F4E2E8F1E005C051
:10101000813009F053C0E4EAF1E0449180E8BF0177
:1010200050E00E948F0546C0873009F447C08830E1
:1010300021F481E08093F1003DC08930D9F523701F
:101040003070232BD9F5E1EEF1E091E031E026E3B9
:101050009093E9003093EB0084918093EC0020930F
:10106000ED009F5F3196953099F78EE78093EA0007
:101070001092EA008B818093CB011CC08F819885F0
:101080001092E9001092CD011092CC019093CF0103
:101090008093CE018D81882329F4CE0101960E9490
:1010A000610406C0823051F4CE0101960E947F088F
:1010B000882321F08EEF8093E80007C081E28093BF
:1010C000EB0003C0EEECF1E0A8CF6196DEBFCDBF30
:1010D000CF91DF91FF91EF91BF91AF919F918F9150
:1010E0007F916F915F914F913F912F911F91FF9051
:1010F000EF900F900FBE0F901F9018950895FC0170
:1011000091818081813A31F4913089F080E093308F
:1011100089F40DC0813269F49B3021F4828180937F
:101120004B0105C09A3029F4828180934C0181E003
:10113000089580E00895EF92FF920F931F938C0122
:10114000E62EDC01ED91FC910480F581E02D0995FE
:10115000F82ED801ED91FC910680F781E02DC801B1
:101160006E2D09958F2D90E01F910F91FF90EF90BC
:1011700008951092D2011092D6011092D50183E603
:1011800091E09093D4018093D3010895EF92FF9260
:101190000F931F93DF93CF930F92CDB7DEB7898361
:1011A0008B017A0184E0BE016F5F7F4F41E050E028
:1011B0000E94110684E4B801A7010E9411060F9055
:1011C000CF91DF911F910F91FF90EF90089582E0F2
:1011D00048E050E00E94C6080895FC01168217827C
:1011E000108611861286138614823496BF010E94DF
:1011F000E7080895DC01683810F0685829C0E62F28
:10120000F0E067FF13C0E058F04081E090E002C0DA
:10121000880F991FEA95E2F7809514962C91149700
:10122000282314962C93149760E012C0ED59FD4FBB
:101230006491662319F420E030E01DC067FF08C008
:1012400014968C9114978D7F14968C9314976F77C6
:10125000FD0190E0662321F08681861709F416824D
:101260009F5F31969630B1F7CD011496BD010E9473
:10127000E70821E030E0C9010895CF93DF93DC0156
:10128000683810F0685825C0E62FF0E067FF12C0FC
:10129000E058F04081E090E002C0880F991FEA9585
:1012A000E2F714962C911497282B14962C931497EC
:1012B00060E00FC0ED59FD4F64916623D9F167FFDF
:1012C00008C014968C911497826014968C9314978E
:1012D0006F7716968C9116978617A9F117968C91B1
:1012E0001797861781F118968C911897861759F1E0
:1012F00019968C911997861731F11A968C911A9735
:10130000861709F11B968C911B978617E1F0ED016A
:10131000E0E0F0E09E2F8E81882321F4EA0FFB1F8E
:10132000668306C09F5F31962196E630F10591F7FE
:10133000963049F481E090E013969C938E93129737
:1013400020E030E007C0CD011496BD010E94E708FF
:1013500021E030E0C901DF91CF91089580E865EE8A
:1013600071E045E650E00E948F050895FC01808100
:101370008F5F808380E86AE472E049E150E00E9478
:101380008F050895EE0FFF1F0590F491E02D09944D
:04139000F894FFCFFF
:10139400506170696C696F2044554F20415652204A
:1013A40053657269616C20506F7274202D204172F4
:1013B4006475696E6F20636F6D70617469626C65CA
:1013C4002041546D656761333255340056312E30F7
:1013D400000D0000E1000000000000010100000019
:1013E400000304CA04A203C903B0032B042F04009E
:0E13F4000000009B08CA043D09FA08ED08003D
:00000001FF
